:100000000C945E000C9486000C9486000C94860080
:100010000C9486000C9486000C9486000C94860048
:100020000C9486000C9486000C9486000C946F014E
:100030000C9486000C9486000C9486000C94860028
:100040000C94A7060C9486000C9459050C949C05FE
:100050000C9486000C9486000C9486000C94860008
:100060000C9486000C94860000000007000201003A
:100070000003040600000000000000000102040864
:100080001020408001020408102001020408102002
:10009000040404040404040402020202020203032E
:1000A0000303030300000000250028002B000000CC
:1000B0000000240027002A000F015F0611241FBE44
:1000C000CFEFD8E0DEBFCDBF11E0A0E0B1E0E4ECBF
:1000D000FEE002C005900D92A431B107D9F721E0EE
:1000E000A4E1B1E001C01D92AC3FB207E1F710E01E
:1000F000CEE5D0E004C02197FE010E945A07CC351E
:10010000D107C9F70E949A060C9460070C9400006E
:10011000CF93DF936731710548F42AE0269FE00111
:10012000279FD00D1124CA5DDD4F3BC06733710599
:100130004CF42AE0269FE001279FD00D1124C05DDA
:10014000DD4F2FC0673571054CF42AE0269FE00192
:10015000279FD00D1124C65CDD4F23C06737710582
:100160004CF42AE0269FE001279FD00D1124CC5BA0
:10017000DD4F17C0683971054CF42AE0269FE00175
:10018000279FD00D1124C25BDD4F0BC0653B71056D
:1001900044F42AE0269FE001279FD00D1124C85A7D
:1001A000DD4F8130910579F08230910581F0892B06
:1001B00099F460E071E089E491E00E94F603BE01E9
:1001C00080E291E007C0BE018DE191E003C0BE0175
:1001D0008AE191E00E94D4024AE050E0BE0189E445
:1001E00091E0DF91CF910C94A80463E070E080E28D
:1001F00091E00E94CE0264E070E08DE191E00E9407
:10020000CE0265E070E08AE191E00E94CE0240E813
:1002100055E260E070E089E491E00C94D70580E25B
:1002200091E00E9430028DE191E00E9430028AE16B
:1002300091E00C94300289E491E00E94BF04892B84
:10024000C1F189E491E00E94EB04803374F18A33B8
:10025000BCF0833751F560911801709119017093CA
:1002600017016093160181E090E09093150180934F
:1002700014014AE050E089E491E00E94A80415C00E
:1002800040911801509119019AE0949F9001959F17
:10029000300D1124082E000C990BC097820F931F6C
:1002A00090931901809318010895109219011092EA
:1002B000180108950E941B0180911401909115016D
:1002C000019761F4609116017091170180E090E050
:1002D0000E948800109215011092140108951F9237
:1002E0000F920FB60F9211242F933F934F935F936A
:1002F0006F937F938F939F93AF93BF93EF93FF93EE
:100300008091240187FF05C010928500109284001F
:100310001BC020912401022E000C330B809123017D
:1003200090E02817390784F480912401082E000CEE
:10033000990BFC01EE0FFF1F8E0F9F1FFC01EB5D61
:10034000FE4F808186FD15C0809124018F5F8093D0
:10035000240120912401022E000C330B80912301F3
:1003600090E028173907C4F4809124018C3064F19F
:1003700013C080912401082E000C990BFC01EE0F94
:10038000FF1F8E0F9F1FFC01EB5DFE4F808160E021
:100390008F730E946E03D8CF809184009091850066
:1003A000049680349C4918F480E49CE905C080914F
:1003B0008400909185000496909389008093880032
:1003C0008FEF809324013BC0209184003091850001
:1003D00080912401082E000C990BFC01EE0FFF1FE9
:1003E0008E0F9F1FFC01EB5DFE4F81819281820F7A
:1003F000931F909389008093880080912401082E98
:10040000000C990BFC01EE0FFF1F8E0F9F1FFC01CC
:10041000EB5DFE4F808186FF12C080912401082E83
:10042000000C990BFC01EE0FFF1F8E0F9F1FFC01AC
:10043000EB5DFE4F808161E08F730E946E03FF9140
:10044000EF91BF91AF919F918F917F916F915F914C
:100450004F913F912F910F900FBE0F901F901895C5
:10046000FC01909123019C30A0F481E0890F8093DE
:1004700023019083892F90E0FC01EE0FFF1F8E0F68
:100480009F1FFC01EB5DFE4F88EB9BE09283818315
:1004900008958FEF80830895DF92EF92FF920F937C
:1004A0001F93CF93DF93EC01D62E7A0189018881C7
:1004B0008C3008F06AC061E08D2D0E943203888183
:1004C000E82FF0E09F01220F331FE20FF31FEB5DD7
:1004D000FE4F9D2D9F732081207CD22ED92AD08261
:1004E00060E272E0AB014E195F0957FF02C04D5F39
:1004F0005F4F5595479555954795498340E659E097
:100500009A01201B310B37FF02C02D5F3F4F3595FD
:100510002795359527952A836CE00E942C079CE04F
:10052000899FB001112440E050E09A01260F371F47
:10053000F901EE0FFF1F2E0F3F1FF901EB5DFE4F7C
:10054000908196FD16C04F5F5F4F4C30510569F7A3
:1005500081110FC01092800082E080938100109280
:10056000850010928400B19A80916F008260809320
:100570006F00E881F0E0CF01880F991FE80FF91FA5
:10058000EB5DFE4F8081806480838881DF91CF9115
:100590001F910F91FF90EF90DF90089520E639E0D2
:1005A00040E252E00C944C02FC0190819C3080F5BA
:1005B000818128E830E0281B310987FD3395220F1F
:1005C000331F220F331F621773077CF0828128E5E7
:1005D00032E0281B310987FD3395220F331F220F8C
:1005E000331F621773070CF49B014FB7F894892FE0
:1005F00090E0FC01EE0FFF1F8E0F9F1FFC01EB5DD3
:10060000FE4F22503109220F331F328321834FBF07
:100610000895833081F028F4813099F08230A1F080
:1006200008958630A9F08730B9F08430D1F48091F4
:1006300080008F7D03C0809180008F778093800041
:10064000089584B58F7702C084B58F7D84BD0895E9
:100650008091B0008F7703C08091B0008F7D809330
:10066000B0000895CF93DF9390E0FC01E458FF4F72
:100670002491FC01E057FF4F8491882361F190E0C1
:10068000880F991FFC01E255FF4FC591D491FC01E1
:10069000EC55FF4FA591B491611109C09FB7F89433
:1006A0008881209582238883EC912E230BC06230B1
:1006B00061F49FB7F8943881822F809583238883D3
:1006C000EC912E2B2C939FBF06C08FB7F894E88136
:1006D0002E2B28838FBFDF91CF9108951F93CF9347
:1006E000DF93282F30E0F901E859FF4F8491F90199
:1006F000E458FF4FD491F901E057FF4FC491CC2348
:10070000C9F0162F81110E940903EC2FF0E0EE0FC3
:10071000FF1FEC55FF4FA591B4918FB7F8941111BD
:1007200005C09C91ED2FE095E92302C0EC91ED2BE3
:10073000EC938FBFDF91CF911F910895CF92DF92FD
:10074000EF92FF920F931F93CF93DF936C01EB0116
:100750007B01E40EF51E00E010E0CE15DF0561F030
:100760006991D601ED91FC910190F081E02DC601D7
:100770000995080F191FF1CFC801DF91CF911F9183
:100780000F91FF90EF90DF90CF9008956115710564
:1007900079F0FB0101900020E9F73197AF01461B8A
:1007A000570BDC01ED91FC910280F381E02D09945F
:1007B00080E090E00895DC01ED91FC910190F081E2
:1007C000E02D09940F931F93CF93DF93EC016DE01D
:1007D0000E94DB038C016AE0CE010E94DB03800FE4
:1007E000911FDF91CF911F910F9108950F931F9348
:1007F000CF93DF93EC010E94C6038C01CE010E94CF
:10080000E203800F911FDF91CF911F910F91089507
:100810008F929F92AF92BF92CF92DF92EF92FF9210
:100820000F931F93CF93DF93CDB7DEB7A1970FB68A
:10083000F894DEBF0FBECDBF6C01142FE52FCB01A6
:10084000022F19A2223008F40AE07E0121E2E20E12
:10085000F11C802E912CA12CB12C612F7E2FA50193
:1008600094010E943807029F1019112481E0E81AB0
:10087000F1081A3014F4105D01C0195CF7011083FF
:10088000122FE32FCA01232B242B252B31F7B7017D
:10089000C6010E94C603A1960FB6F894DEBF0FBE34
:1008A000CDBFDF91CF911F910F91FF90EF90DF901F
:1008B000CF90BF90AF909F908F900895CF92DF928E
:1008C000EF92FF920F931F93CF93DF93EC016A0196
:1008D0007B012115310579F4E881F9810190F081DE
:1008E000E02D642FDF91CF911F910F91FF90EF903A
:1008F000DF90CF9009942A303105E9F477FF1AC0D0
:100900006DE20E94DB038C0144275527BA014C1984
:100910005D096E097F092AE0CE010E940804800F5C
:10092000911FDF91CF911F910F91FF90EF90DF907A
:10093000CF9008952AE0B701A601CE01DF91CF91B3
:100940001F910F91FF90EF90DF90CF900C940804CF
:100950000F931F93CF93DF93EC019A01AB01770FB5
:10096000660B770B0E945E048C01CE010E94E203AD
:10097000800F911FDF91CF911F910F910895FC017E
:1009800024853585F901E05CFF4F808191813296A5
:1009900020813181821B930B8F7399270895DC018D
:1009A0001C96ED91FC911D97DF01A05CBF4F2D912E
:1009B0003C91119712968D919C91119728173907A8
:1009C00039F08D919C91E80FF91F808190E0089596
:1009D0008FEF9FEF0895FC01A485B585FD01E05CD4
:1009E000FF4F20813181329680819181281739070C
:1009F00079F080819181A80FB91F8C91208131817C
:100A00002F5F3F4F2F7333273183208390E008956A
:100A10008FEF9FEF0895FC0181A1882329F0A4891D
:100A2000B5898C9186FFFBCF11A208950F931F9378
:100A3000CF93DF93FC01A685B7858D01005C1F4F26
:100A4000E8018881998101968F739927AD014E5BEA
:100A50005F4FEA012881398182179307D1F3E801BA
:100A600028813981A20FB31F6C93A685B785A05C3E
:100A7000BF4F11969C938E93A689B7892C9181E0E4
:100A800090E0078C02C0880F991F0A94E2F7822B2E
:100A90008C9381E081A30488F589E02D80818064B6
:100AA000808381E090E0DF91CF911F910F910895B5
:100AB00008951F920F920FB60F9211242F934F9308
:100AC0005F938F939F93EF93FF938091C00082FD7C
:100AD0001CC02091C6008091EF019091F001019619
:100AE0008F7399274091F1015091F2018417950776
:100AF00071F0E091EF01F091F001E155FE4F20839C
:100B00009093F0018093EF0102C08091C600FF91A5
:100B1000EF919F918F915F914F912F910F900FBE09
:100B20000F901F90189589E491E00E94BF04892BD3
:100B300011F00C94580508951F920F920FB60F9262
:100B400011242F933F938F939F93EF93FF932091C3
:100B5000AB013091AC018091AD019091AE012817AD
:100B6000390731F48091C1008F7D8093C10014C09A
:100B7000E091AD01F091AE01E559FE4F20818091E9
:100B8000AD019091AE0101968F7399279093AE01BC
:100B90008093AD012093C600FF91EF919F918F91BB
:100BA0003F912F910F900FBE0F901F901895CF92ED
:100BB000DF92EF92FF920F931F93CF93DF93EC019D
:100BC0006A017B014115514E6105710509F1EC89FE
:100BD000FD8981E090E008A002C0880F991F0A9467
:100BE000E2F7808360E079E08DE390E0A701960171
:100BF0000E94380789019A01015011092109310920
:100C00003695279517950795980101151041A8F07D
:100C1000EC89FD89108260E874E88EE190E0A7011C
:100C200096010E943807DA01C9010197A109B109AB
:100C3000B695A795979587959C01E889F9893083A2
:100C4000EA89FB89208319A2EE89FF89408181E02E
:100C500090E09C010C8C02C0220F331F0A94E2F733
:100C6000242B2083EE89FF8940819C010D8C02C0DA
:100C7000220F331F0A94E2F7242B2083EE89FF8989
:100C800040819C010E8C02C0220F331F0A94E2F7B0
:100C9000242B2083EE89FF8920810F8C02C0880FCE
:100CA000991F0A94E2F7809582238083DF91CF9188
:100CB0001F910F91FF90EF90DF90CF900895E9E49E
:100CC000F1E01382128288EE93E0A0E0B0E084832A
:100CD0009583A683B78387E091E0918380838FEA31
:100CE00091E0958784878BE691E09787868785ECEE
:100CF00090E0918B808B84EC90E0938B828B80ECE6
:100D000090E0958B848B81EC90E0978B868B82ECC6
:100D100090E0918F808F86EC90E0938F828F84E0BB
:100D2000848F83E0858F87E0868F85E0878F81E0E1
:100D300080A308950E94F1060E94F500C3E9D5E062
:100D40000E945A012097E1F30E949305F9CF1F9268
:100D50000F920FB60F9211242F933F938F939F936F
:100D6000AF93BF938091F4019091F501A091F601AA
:100D7000B091F7013091F30123E0230F2D3720F4D8
:100D80000196A11DB11D05C026E8230F0296A11DE5
:100D9000B11D2093F3018093F4019093F501A0938A
:100DA000F601B093F7018091F8019091F901A091BB
:100DB000FA01B091FB010196A11DB11D8093F801CC
:100DC0009093F901A093FA01B093FB01BF91AF9109
:100DD0009F918F913F912F910F900FBE0F901F9079
:100DE0001895789484B5826084BD84B5816084BD93
:100DF00085B5826085BD85B5816085BDEEE6F0E094
:100E0000808181608083E1E8F0E0108280818260EF
:100E10008083808181608083E0E8F0E08081816070
:100E20008083E1EBF0E0808184608083E0EBF0E0A0
:100E3000808181608083EAE7F0E080818460808344
:100E400080818260808380818160808380818068EE
:100E500080831092C1000895991B79E004C0991F06
:100E6000961708F0961B881F7A95C9F78095089504
:100E7000A1E21A2EAA1BBB1BFD010DC0AA1FBB1F9E
:100E8000EE1FFF1FA217B307E407F50720F0A21B10
:100E9000B30BE40BF50B661F771F881F991F1A947D
:100EA00069F760957095809590959B01AC01BD01A7
:100EB000CF010895EE0FFF1F0590F491E02D0994E6
:040EC000F894FFCFD4
:100EC4006F6B000000000016059E03BF04EB04CF07
:040ED400040B050006
:00000001FF
